:100000000C9434000C9451000C9451000C94510049
:100010000C9451000C9451000C9451000C9451001C
:100020000C9451000C9451000C9451000C9451000C
:100030000C9451000C9451000C949D000C945100B0
:100040000C9451000C9451000C9451000C945100EC
:100050000C9451000C9451000C9451000C945100DC
:100060000C9451000C94510011241FBECFEFD8E026
:10007000DEBFCDBF11E0A0E0B1E0EEE9F6E002C0E6
:1000800005900D92A230B107D9F721E0A2E0B1E0CE
:1000900001C01D92A830B207E1F70E9416030C942C
:1000A0004D030C9400001092C50087E68093C400B5
:1000B00080E18093C10086E08093C2000895809122
:1000C000C000807808958091C00087FFFCCF8091A8
:1000D000C0008C7121F08091C60080E0089580916D
:1000E000C60008950F931F93CF93DF938C01C4E64E
:1000F000D0E00E945F00882331F0DF91CF911F9103
:100100000F910C9463008FE99FE00197F1F700C015
:100110000000219771F781E0F801808380E0DF9192
:10012000CF911F910F91089582E084BD93E095BD1A
:1001300099EF97BD80936E0008951F920F920FB6AE
:100140000F9211248F939F9380910201909103014C
:10015000892B49F0809102019091030101979093BE
:100160000301809302019F918F910F900FBE0F901A
:100170001F9018958091040190910501892B49F4F5
:1001800081E090E090930501809304018FEF0C943F
:100190007D02109205011092040110920701109245
:1001A000060184EB0E947D020C9427020E945F00EE
:1001B000882331F00E9463008E3F11F40C94BA0042
:1001C0000895EF92FF920F931F93CF93DF9300D088
:1001D00000D01F92CDB7DEB71D828E010B5F1F4F7F
:1001E000C8010E9472009D81992371F00E9427022C
:1001F0000F900F900F900F900F90DF91CF911F9164
:100200000F91FF90EF9008958E3F19F40E94BA006D
:10021000EFCF8F3F69F7CE0101967C01C8010E94A4
:100220007200F70181937F018D818111DFCFE0178B
:10023000F107A1F789819A819827892798272B812F
:100240003C81322723273227253631057CF085363D
:1002500091051CF00E944202CBCF8C399F4F1CF4B9
:100260000E942B02C5CF0E94D701C2CF2C393F4F2D
:100270007CF4853691051CF00E945902B9CF8C3967
:100280009F4F1CF40E946B02B3CF0E94EB01B0CFD2
:10029000853691051CF00E941302AACF8C399F4F1E
:1002A0000CF0A4CF0E94FF01A3CF0E94D6002FB76D
:1002B000F89480910201909103012FBF892B31F5B1
:1002C00080910601909107018130910549F138F044
:1002D0008230910591F1039709F43CC008950E9482
:1002E000000301978331910590F40E94270281E079
:1002F00090E090930701809306018FB7F89424EF64
:1003000031E030930301209302018FBF0895879756
:1003100028F484E60E947D020C94D70184EBFACF86
:100320000E94EB0182E090E0909307018093060128
:100330008FB7F89420ED37E0E4CF0E94130283E0FA
:1003400090E090930701809306018FB7F89420E224
:1003500033E0D7CF0E9427021092070110920601C6
:100360008FB7F89428EC30E0CCCF5C985D985E981D
:100370005F980895029729F45C985D9A5E985F9A59
:1003800008955C9A5D985E9A5F98089540984198A8
:10039000429843980895029729F44098419A4298C8
:1003A000439A0895409A4198429A4398089582E06A
:1003B00090E00E94BA0182E090E00E94CB0180911F
:1003C000000190E0909389008093880090938B00C7
:1003D00080938A00089581E090E00E94BA0181E054
:1003E00090E00E94CB018091000190E09093890001
:1003F0008093880090938B0080938A00089581E019
:1004000090E00E94BA0182E090E00E94CB018091CE
:10041000000190E0909389008093880090938B0076
:1004200080938A00089582E090E00E94BA0181E002
:1004300090E00E94CB018091000190E090938900B0
:100440008093880090938B0080938A0008950E9487
:10045000B5010C94C60182E090E00E94BA0182E0EE
:1004600090E00E94CB0180910001282F269530E07A
:10047000309389002093880090E090938B008093C4
:100480008A00089582E090E00E94BA0182E090E044
:100490000E94CB0180910001282F30E03093890029
:1004A00020938800869590E090938B0080938A003B
:1004B000089581E090E00E94BA010E94C6018091F7
:1004C000000190E0909389008093880010928B0047
:1004D00010928A0008950E94B50181E090E00E9488
:1004E000CB0110928900109288008091000190E069
:1004F00090938B0080938A0008958093000190E090
:10050000909389008093880090938B0080938A0059
:1005100008958AB180638AB98AB1806C8AB987B13B
:10052000836087B987B18C6087B92FEF81EE94E043
:10053000215080409040E1F700C0000081EA8093A4
:1005400080008AE08093810084B1866084B90E9433
:1005500027028FEF0C947D0290E0909389008093A6
:100560008800089590E090938B0080938A0008950E
:10057000239A2B9824982C982FEF80E792E0215013
:1005800080409040E1F700C0000008952B982AE0D9
:100590002A95F1F700C02B9A85E38A95F1F70000C0
:1005A0002B9889EA96E11C9B05C090E080E01C999D
:1005B0000BC00895019719F490E080E0089525E0BC
:1005C0002A95F1F70000EFCF25E02A95F1F700001A
:1005D0000196883A26E1920751F7EECF0E94C602B3
:1005E000009759F06AE370E00E943903CB019B0148
:1005F000225031092336310510F08FEF9FEF089517
:100600000E94EE0221E030E01816190624F090E076
:1006100080E030E020E0EFE3FFE13197F1F700C048
:100620000000232B11F48FEF9FEF08950E948902A1
:100630000E9453000E94B8020E94940078942FEF09
:1006400083ED90E3215080409040E1F700C000002E
:1006500084EB0E947D020E94D6008091040190915B
:100660000501892B19F40E945501F5CF0E94E10084
:10067000F2CFAA1BBB1B51E107C0AA1FBB1FA617C5
:10068000B70710F0A61BB70B881F991F5A95A9F73B
:0E06900080959095BC01CD010895F894FFCFA0
:02069E00FF005B
:00000001FF
