:100000000C9434000C9451000C9451000C94510049
:100010000C9451000C9451000C9451000C9451001C
:100020000C9451000C9451000C9451000C9451000C
:100030000C9451000C9451000C949D000C945100B0
:100040000C9451000C9451000C9451000C945100EC
:100050000C9451000C9451000C9451000C945100DC
:100060000C9451000C94510011241FBECFEFD8E026
:10007000DEBFCDBF11E0A0E0B1E0EAE3F7E002C0EF
:1000800005900D92A230B107D9F721E0A2E0B1E0CE
:1000900001C01D92A930B207E1F70E9464030C94DD
:1000A0009B030C9400001092C50087E68093C40067
:1000B00080E18093C10086E08093C2000895809122
:1000C000C000807808958091C00087FFFCCF8091A8
:1000D000C0008C7121F08091C60080E0089580916D
:1000E000C60008950F931F93CF93DF938C01C2E353
:1000F000D0E00E945F00882331F0DF91CF911F9103
:100100000F910C9463008FE99FE00197F1F700C015
:100110000000219771F781E0F801808380E0DF9192
:10012000CF911F910F91089582E084BD93E095BD1A
:1001300099EF97BD80936E0008951F920F920FB6AE
:100140000F9211248F939F9380910201909103014C
:10015000892B49F0809102019091030101979093BE
:100160000301809302019F918F910F900FBE0F901A
:100170001F9018958091040190910501892B49F4F5
:1001800081E090E090930501809304018CED0C9444
:10019000BA02109205011092040110920801109207
:1001A00007018CED0E94BA020C9448020E945F0085
:1001B000882331F00E9463008E3F11F40C94BA0042
:1001C0000895EF92FF920F931F93CF93DF9300D088
:1001D00000D01F92CDB7DEB71D828E010B5F1F4F7F
:1001E000C8010E9472009D81992371F00E9448020B
:1001F0000F900F900F900F900F90DF91CF911F9164
:100200000F91FF90EF9008958E3F19F40E94BA006D
:10021000EFCF8F3F69F7CE0101967C01C8010E94A4
:100220007200F70181937F018D818111DFCFE0178B
:10023000F107A1F789819A819827892798272B812F
:100240003C81322723273227253631057CF085363D
:1002500091051CF00E947402CBCF8C399F4F1CF487
:100260000E945902C5CF0E94E801C2CF2C393F4FEE
:100270007CF4853691051CF00E948F02B9CF8C3931
:100280009F4F1CF40E94A502B3CF0E940002B0CF82
:10029000853691051CF00E943002AACF8C399F4F01
:1002A0000CF0A4CF0E941802A3CF0E94D6002FB753
:1002B000F89480910201909103012FBF892B21F5C1
:1002C00080910701909108018130910501F130F092
:1002D0008230910549F10397D9F108950E944E03A8
:1002E0000197439790F40E94480281E090E0909338
:1002F0000801809307018FB7F89420E233E0309330
:100300000301209302018FBF08950C94E8010E941D
:10031000000282E090E090930801809307018FB77C
:10032000F89424EF31E0EBCF8091060181110DC0EC
:100330000E94590283E090E09093080180930701A6
:100340008FB7F8942CED35E0DACF0E947402F2CF2B
:100350000E9448020E944E030197439758F481E09F
:1003600090E090930801809307018FB7F8942CE2F6
:1003700031E0C5CF81E090910601911180E080933A
:1003800006011092080110920701C9CF5C985D9890
:100390005E985F980895029729F45C985D9A5E983C
:1003A0005F9A08955C9A5D985E9A5F980895409868
:1003B0004198429843980895029729F44098419AA9
:1003C0004298439A0895409A4198429A43980895D2
:1003D00082E090E00E94CB0182E090E00E94DC018C
:1003E000809100018093B4008093B30090E09093DB
:1003F0008B0080938A0090938900809388000895F1
:1004000081E090E00E94CB0181E090E00E94DC015D
:10041000809100018093B4008093B30090E09093AA
:100420008B0080938A0090938900809388000895C0
:1004300081E090E00E94CB0182E090E00E94DC012C
:10044000809100018093B4008093B30090E090937A
:100450008B0080938A009093890080938800089590
:1004600082E090E00E94CB0181E090E00E94DC01FC
:10047000809100018093B4008093B30090E090934A
:100480008B0080938A009093890080938800089560
:100490000E94C6010E94D7011092B4001092B300CE
:1004A00010928B0010928A0010928900109288009E
:1004B000089582E090E00E94CB0182E090E00E94EB
:1004C000DC0120910001822F8695869590E0909323
:1004D0008B0080938A0090938900809388002093FA
:1004E000B4002093B300089582E090E00E94CB0115
:1004F00082E090E00E94DC0180910001282F30E032
:1005000030938B0020938A003093890020938800D9
:10051000869586958093B4008093B300089581E01A
:1005200090E00E94CB010E94D7018091000190E0F1
:1005300090938B0080938A00909389008093880029
:100540001092B4001092B30008950E94C60181E099
:1005500090E00E94DC0110928B0010928A001092B1
:10056000890010928800809100018093B4008093EC
:10057000B3000895809300018093B4008093B3008A
:1005800090E090938B0080938A00909389008093F1
:10059000880008958AB180638AB98AB1806C8AB96B
:1005A00087B1836087B987B18C6087B92FEF81EEFF
:1005B00094E0215080409040E1F700C0000081EAC3
:1005C000809380008AE08093810084B1866084B942
:1005D00083EA8093B00082E08093B100239A539A1B
:1005E0000E9448028FEF0C94BA0290E090938B0027
:1005F00080938A0090938900809388000895809367
:10060000B4008093B30008953D9A459824982C989F
:100610002FEF80E792E0215080409040E1F700C04A
:100620000000089545988FE19EE40197F1F700C01E
:100630000000459A95E39A95F1F70000459889EBFB
:100640009BE01C9B05C090E080E01C990BC00895C6
:10065000019719F490E080E0089525E02A95F1F7DC
:100660000000EFCF25E02A95F1F700000196883BC6
:100670002BE0920751F7EECF0E941203009759F03A
:100680006AE370E00E948703CB019B01225031098D
:100690002336310510F08FEF9FEF08950E943C0341
:1006A00021E030E01816190624F030E020E090E058
:1006B00080E0EFE3FCE93197F1F700C00000232B65
:1006C00011F48FEF9FEF08950E94CA020E94530019
:1006D0000E9404030E94940078942FEF83ED90E32E
:1006E000215080409040E1F700C0000088EC0E945B
:1006F000BA020E94D6008091040190910501892BD5
:1007000019F40E945501F5CF0E94E100F2CFAA1B17
:10071000BB1B51E107C0AA1FBB1FA617B70710F0EC
:10072000A61BB70B881F991F5A95A9F7809590951E
:0A073000BC01CD010895F894FFCF3D
:02073A00FF00BE
:00000001FF
