:100000000C9434000C9451000C9451000C94510049
:100010000C9451000C9451000C9451000C9451001C
:100020000C9451000C9451000C9451000C9451000C
:100030000C9451000C9451000C949D000C945100B0
:100040000C9451000C9451000C9451000C945100EC
:100050000C9451000C9451000C9451000C945100DC
:100060000C9451000C94510011241FBECFEFD8E026
:10007000DEBFCDBF11E0A0E0B1E0E2E6F7E002C0F4
:1000800005900D92A230B107D9F721E0A2E0B1E0CE
:1000900001C01D92A930B207E1F70E9478030C94C9
:1000A000AF030C9400001092C50087E68093C40053
:1000B00080E18093C10086E08093C2000895809122
:1000C000C000807808958091C00087FFFCCF8091A8
:1000D000C0008C7121F08091C60080E0089580916D
:1000E000C60008950F931F93CF93DF938C01C2E353
:1000F000D0E00E945F00882331F0DF91CF911F9103
:100100000F910C9463008FE99FE00197F1F700C015
:100110000000219771F781E0F801808380E0DF9192
:10012000CF911F910F91089582E084BD93E095BD1A
:1001300099EF97BD80936E0008951F920F920FB6AE
:100140000F9211248F939F9380910201909103014C
:10015000892B49F0809102019091030101979093BE
:100160000301809302019F918F910F900FBE0F901A
:100170001F9018958091040190910501892B49F4F5
:1001800081E090E090930501809304018CED0C9444
:10019000CD021092050110920401109208011092F4
:1001A00007018CED0E94CD020C9453020E945F0067
:1001B000882331F00E9463008E3F11F40C94BA0042
:1001C0000895EF92FF920F931F93CF93DF9300D088
:1001D00000D01F92CDB7DEB71D828E010B5F1F4F7F
:1001E000C8010E9472009D81992371F00E94530200
:1001F0000F900F900F900F900F90DF91CF911F9164
:100200000F91FF90EF9008958E3F19F40E94BA006D
:10021000EFCF8F3F69F7CE0101967C01C8010E94A4
:100220007200F70181937F018D818111DFCFE0178B
:10023000F107A1F789819A819827892798272B812F
:100240003C81322723273227253631057CF085363D
:1002500091051CF00E948102CBCF8C399F4F1CF47A
:100260000E946402C5CF0E94E701C2CF2C393F4FE4
:100270007CF4853691051CF00E94A002B9CF8C3920
:100280009F4F1CF40E94B602B3CF0E940202B0CF6F
:10029000853691051CF00E943802AACF8C399F4FF9
:1002A0000CF0A4CF0E941D02A3CF0E94D6002FB74E
:1002B000F89480910201909103012FBF892B29F5B9
:1002C00080910701909108018130910509F138F082
:1002D0008230910551F1039709F440C008950E94BE
:1002E00062030197439790F40E94530281E090E0EB
:1002F00090930801809307018FB7F89420E233E0D0
:1003000030930301209302018FBF08950C94E701FD
:100310000E94020282E090E090930801809307011E
:100320008FB7F89424EF31E0EBCF80910601811173
:1003300010C00E94810281E08093060183E090E07A
:1003400090930801809307018FB7F8942CED35E066
:10035000D7CF0E94640210920601F0CF0E94530290
:100360000E9462030197439758F481E090E09093D4
:100370000801809307018FB7F8942CE231E0C0CFD9
:100380001092080110920701CBCF5C985D985E989F
:100390005F980895029729F45C985D9A5E985F9A39
:1003A00008955C9A5D985E9A5F9808954098419888
:1003B000429843980895029729F44098419A4298A8
:1003C000439A0895409A4198429A4398089582E04A
:1003D00090E00E94CA0182E090E00E94DB018091DF
:1003E0000001282F30E0309389002093880030935B
:1003F0008B0020938A008093B3008091000180934A
:10040000B400089581E090E00E94CA0181E090E08C
:100410000E94DB0180910001282F30E03093890099
:100420002093880030938B0020938A008093B30040
:10043000809100018093B400089581E090E00E94D3
:10044000CA0182E090E00E94DB0180910001282F28
:1004500030E0309389002093880030938B00209304
:100460008A008093B300809100018093B4000895C6
:1004700082E090E00E94CA0181E090E00E94DB01EE
:1004800080910001282F30E030938900209388006C
:1004900030938B0020938A008093B30080910001F9
:1004A0008093B40008950E94C5010E94D601109265
:1004B00089001092880010928B0010928A0010928E
:1004C000B3001092B400089582E090E00E94CA0147
:1004D00082E090E00E94DB0120910001822F86954E
:1004E000869590E0909389008093880090938B008C
:1004F00080938A002093B300809100018093B40020
:10050000089582E090E00E94CA0182E090E00E949B
:10051000DB0180910001282F30E030938900209387
:10052000880030938B0020938A008695869580936F
:10053000B30080910001869586958093B40008955C
:1005400081E090E00E94CA010E94D60180910001E2
:1005500090E0909389008093880090938B00809323
:100560008A001092B3001092B40008950E94C50151
:1005700081E090E00E94DB011092890010928800D7
:1005800010928B0010928A00809100018093B3003A
:10059000809100018093B400089580930001282F7A
:1005A00030E0309389002093880030938B002093B3
:1005B0008A008093B3008093B40008958AB1806369
:1005C0008AB98AB1806C8AB987B1836087B987B1EB
:1005D0008C6087B92FEF81EE94E0215080409040ED
:1005E000E1F700C0000081EA809380008AE08093F8
:1005F000810084B1866084B983EA8093B00082E090
:100600008093B100239A539A0E9453028FEF0C9467
:10061000CD0290E0909389008093880090938B00A6
:1006200080938A0008958093B3008093B400089566
:100630003D9A459824982C982FEF80E792E021501E
:1006400080409040E1F700C00000089545988FE198
:100650009EE40197F1F700C00000459A95E39A9552
:10066000F1F70000459889EB9BE01C9B05C090E0EA
:1006700080E01C990BC00895019719F490E080E088
:10068000089525E02A95F1F70000EFCF25E02A959F
:10069000F1F700000196883B2BE0920751F7EECF6F
:1006A0000E942603009759F06AE370E00E949B03C2
:1006B000CB019B01225031092336310510F08FEF19
:1006C0009FEF08950E94500321E030E018161906AC
:1006D00024F090E080E030E020E0EFE3FCE93197A7
:1006E000F1F700C00000232B11F48FEF9FEF089566
:1006F0000E94DE020E9453000E9418030E94940090
:1007000078942FEF83ED90E3215080409040E1F703
:1007100000C0000088EC0E94CD020E94D6008091AB
:10072000040190910501892B19F40E945501F5CF20
:100730000E94E100F2CFAA1BBB1B51E107C0AA1F18
:10074000BB1FA617B70710F0A61BB70B881F991F72
:100750005A95A9F780959095BC01CD010895F8941C
:02076000FFCFC9
:02076200FF0096
:00000001FF
