:100000000C9434000C9451000C9451000C94510049
:100010000C9451000C9451000C9451000C9451001C
:100020000C9451000C9451000C9451000C9451000C
:100030000C9451000C9451000C949D000C945100B0
:100040000C9451000C9451000C9451000C945100EC
:100050000C9451000C9451000C9451000C945100DC
:100060000C9451000C94510011241FBECFEFD8E026
:10007000DEBFCDBF11E0A0E0B1E0ECE2F7E002C0EE
:1000800005900D92A230B107D9F721E0A2E0B1E0CE
:1000900001C01D92A830B207E1F70E945D030C94E5
:1000A00094030C9400001092C50087E68093C4006E
:1000B00080E18093C10086E08093C2000895809122
:1000C000C000807808958091C00087FFFCCF8091A8
:1000D000C0008C7121F08091C60080E0089580916D
:1000E000C60008950F931F93CF93DF938C01C4E64E
:1000F000D0E00E945F00882331F0DF91CF911F9103
:100100000F910C9463008FE99FE00197F1F700C015
:100110000000219771F781E0F801808380E0DF9192
:10012000CF911F910F91089582E084BD93E095BD1A
:1001300099EF97BD80936E0008951F920F920FB6AE
:100140000F9211248F939F9380910201909103014C
:10015000892B49F0809102019091030101979093BE
:100160000301809302019F918F910F900FBE0F901A
:100170001F9018958091040190910501892B49F4F5
:1001800081E090E090930501809304018FEF0C943F
:10019000B40210920501109204011092070110920E
:1001A000060188EC0E94B4020C943A020E945F009F
:1001B000882331F00E9463008E3F11F40C94BA0042
:1001C0000895EF92FF920F931F93CF93DF9300D088
:1001D00000D01F92CDB7DEB71D828E010B5F1F4F7F
:1001E000C8010E9472009D81992371F00E943A0219
:1001F0000F900F900F900F900F90DF91CF911F9164
:100200000F91FF90EF9008958E3F19F40E94BA006D
:10021000EFCF8F3F69F7CE0101967C01C8010E94A4
:100220007200F70181937F018D818111DFCFE0178B
:10023000F107A1F789819A819827892798272B812F
:100240003C81322723273227253631057CF085363D
:1002500091051CF00E946802CBCF8C399F4F1CF493
:100260000E944B02C5CF0E94CE01C2CF2C393F4F16
:100270007CF4853691051CF00E948702B9CF8C3939
:100280009F4F1CF40E949D02B3CF0E94E901B0CFA2
:10029000853691051CF00E941F02AACF8C399F4F12
:1002A0000CF0A4CF0E940402A3CF0E94D6002FB767
:1002B000F89480910201909103012FBF892B21F5C1
:1002C00080910601909107018130910501F130F094
:1002D0008230910549F10397A1F108950E944703E7
:1002E0000197439790F40E943A0281E090E0909346
:1002F0000701809306018FB7F89424EF31E0309323
:100300000301209302018FBF08950C94CE010E9437
:10031000E90182E090E090930701809306018FB796
:10032000F89420ED37E0EBCF0E941F0283E090E0CD
:1003300090930701809306018FB7F89420E233E091
:10034000DECF0E943A0210920701109206018FB789
:10035000F89428EC30E0D3CF5C985D985E985F9875
:100360000895029729F45C985D9A5E985F9A0895C3
:100370005C9A5D985E9A5F9808954098419842987B
:1003800043980895029729F44098419A4298439AD5
:100390000895409A4198429A4398089582E090E0E7
:1003A0000E94B10182E090E00E94C20180910001B0
:1003B000282F30E0309389002093880030938B0001
:1003C00020938A008093B300809100018093B40051
:1003D000089581E090E00E94B10181E090E00E94E8
:1003E000C20180910001282F30E0309389002093D2
:1003F000880030938B0020938A008093B300809113
:1004000000018093B400089581E090E00E94B10162
:1004100082E090E00E94C20180910001282F30E02C
:10042000309389002093880030938B0020938A00BA
:100430008093B300809100018093B400089582E01E
:1004400090E00E94B10181E090E00E94C2018091A1
:100450000001282F30E030938900209388003093EA
:100460008B0020938A008093B300809100018093D9
:10047000B40008950E94AC010E94BD011092890051
:100480001092880010928B0010928A001092B30094
:100490001092B400089582E090E00E94B10182E0E1
:1004A00090E00E94C20120910001822F86958695DE
:1004B00090E0909389008093880090938B008093C4
:1004C0008A002093B300809100018093B4000895C6
:1004D00082E090E00E94B10182E090E00E94C201BF
:1004E00080910001282F30E030938900209388000C
:1004F00030938B0020938A00869586958093B30075
:1005000080910001869586958093B400089581E0DE
:1005100090E00E94B1010E94BD018091000190E035
:10052000909389008093880090938B0080938A0039
:100530001092B3001092B40008950E94AC0181E0C3
:1005400090E00E94C20110928900109288001092DF
:100550008B0010928A00809100018093B3008091FB
:1005600000018093B400089580930001282F30E0AB
:10057000309389002093880030938B0020938A0069
:100580008093B3008093B40008958AB180638AB9E0
:100590008AB1806C8AB987B1836087B987B18C6072
:1005A00087B92FEF81EE94E0215080409040E1F731
:1005B00000C0000081EA809380008AE0809381007F
:1005C00084B1866084B983EA8093B00082E080932E
:1005D000B100239A539A0E943A028FEF0C94B4020E
:1005E00090E0909389008093880090938B00809393
:1005F0008A0008958093B3008093B40008953D9AD3
:10060000459824982C982FEF80E792E02150804065
:100610009040E1F700C00000089545982AE02A952F
:10062000F1F700C0459A85E38A95F1F700004598F7
:1006300089EA96E11C9B05C090E080E01C990BC004
:100640000895019719F490E080E0089525E02A9537
:10065000F1F70000EFCF25E02A95F1F700000196B1
:10066000883A26E1920751F7EECF0E940D030097DA
:1006700059F06AE370E00E948003CB019B01225095
:1006800031092336310510F08FEF9FEF08950E9456
:10069000350321E030E01816190624F090E080E0E0
:1006A00030E020E0EFE3FFE13197F1F700C0000018
:1006B000232B11F48FEF9FEF08950E94C5020E9433
:1006C00053000E94FF020E94940078942FEF83ED64
:1006D00090E3215080409040E1F700C0000088EC9A
:1006E0000E94B4020E94D6008091040190910501FD
:1006F000892B19F40E945501F5CF0E94E100F2CF39
:10070000AA1BBB1B51E107C0AA1FBB1FA617B70737
:1007100010F0A61BB70B881F991F5A95A9F7809553
:0C0720009095BC01CD010895F894FFCF26
:02072C00FF00CC
:00000001FF
