:100000000C9434000C9451000C9451000C94510049
:100010000C9451000C9451000C9451000C9451001C
:100020000C9451000C9451000C9451000C9451000C
:100030000C9451000C9451000C949D000C945100B0
:100040000C9451000C9451000C9451000C945100EC
:100050000C9451000C9451000C9451000C945100DC
:100060000C9451000C94510011241FBECFEFD8E026
:10007000DEBFCDBF11E0A0E0B1E0E0E2F7E002C0FA
:1000800005900D92A230B107D9F721E0A2E0B1E0CE
:1000900001C01D92A830B207E1F70E9457030C94EB
:1000A0008E030C9400001092C50087E68093C40074
:1000B00080E18093C10086E08093C2000895809122
:1000C000C000807808958091C00087FFFCCF8091A8
:1000D000C0008C7121F08091C60080E0089580916D
:1000E000C60008950F931F93CF93DF938C01C4E64E
:1000F000D0E00E945F00882331F0DF91CF911F9103
:100100000F910C9463008FE99FE00197F1F700C015
:100110000000219771F781E0F801808380E0DF9192
:10012000CF911F910F91089582E084BD93E095BD1A
:1001300099EF97BD80936E0008951F920F920FB6AE
:100140000F9211248F939F9380910201909103014C
:10015000892B49F0809102019091030101979093BE
:100160000301809302019F918F910F900FBE0F901A
:100170001F9018958091040190910501892B49F4F5
:1001800081E090E090930501809304018CED0C9444
:10019000AC02109205011092040110920701109216
:1001A000060188EC0E94AC020C9432020E945F00AF
:1001B000882331F00E9463008E3F11F40C94BA0042
:1001C0000895EF92FF920F931F93CF93DF9300D088
:1001D00000D01F92CDB7DEB71D828E010B5F1F4F7F
:1001E000C8010E9472009D81992371F00E94320221
:1001F0000F900F900F900F900F90DF91CF911F9164
:100200000F91FF90EF9008958E3F19F40E94BA006D
:10021000EFCF8F3F69F7CE0101967C01C8010E94A4
:100220007200F70181937F018D818111DFCFE0178B
:10023000F107A1F789819A819827892798272B812F
:100240003C81322723273227253631057CF085363D
:1002500091051CF00E946002CBCF8C399F4F1CF49B
:100260000E944302C5CF0E94C601C2CF2C393F4F26
:100270007CF4853691051CF00E947F02B9CF8C3941
:100280009F4F1CF40E949502B3CF0E94E101B0CFB2
:10029000853691051CF00E941702AACF8C399F4F1A
:1002A0000CF0A4CF0E94FC01A3CF0E94D6002FB770
:1002B000F89480910201909103012FBF892B99F549
:1002C000809106019091070181309105D9F030F0BD
:1002D0008230910549F1039761F108950E9441032D
:1002E0000197439768F40E94320281E090E0909376
:1002F0000701809306018FB7F89420E233E00EC027
:100300000C94C6010E94E10182E090E09093070105
:10031000809306018FB7F89420ED37E03093030106
:10032000209302018FBF08950E94170283E090E09E
:10033000DECF0E94320210920701109206018FB7A1
:10034000F89424EF31E0EACF5C985D985E985F986E
:100350000895029729F45C985D9A5E985F9A0895D3
:100360005C9A5D985E9A5F9808954098419842988B
:1003700043980895029729F44098419A4298439AE5
:100380000895409A4198429A4398089582E090E0F7
:100390000E94A90182E090E00E94BA0180910001D0
:1003A000282F30E0309389002093880030938B0011
:1003B00020938A008093B300809100018093B40061
:1003C000089581E090E00E94A90181E090E00E9400
:1003D000BA0180910001282F30E0309389002093EA
:1003E000880030938B0020938A008093B300809123
:1003F00000018093B400089581E090E00E94A9017B
:1004000082E090E00E94BA0180910001282F30E044
:10041000309389002093880030938B0020938A00CA
:100420008093B300809100018093B400089582E02E
:1004300090E00E94A90181E090E00E94BA018091C1
:100440000001282F30E030938900209388003093FA
:100450008B0020938A008093B300809100018093E9
:10046000B40008950E94A4010E94B5011092890071
:100470001092880010928B0010928A001092B300A4
:100480001092B400089582E090E00E94A90182E0F9
:1004900090E00E94BA0120910001822F86958695F6
:1004A00090E0909389008093880090938B008093D4
:1004B0008A002093B300809100018093B4000895D6
:1004C00082E090E00E94A90182E090E00E94BA01DF
:1004D00080910001282F30E030938900209388001C
:1004E00030938B0020938A00869586958093B30085
:1004F00080910001869586958093B400089581E0EF
:1005000090E00E94A9010E94B5018091000190E055
:10051000909389008093880090938B0080938A0049
:100520001092B3001092B40008950E94A40181E0DB
:1005300090E00E94BA0110928900109288001092F7
:100540008B0010928A00809100018093B30080910B
:1005500000018093B400089580930001282F30E0BB
:10056000309389002093880030938B0020938A0079
:100570008093B3008093B40008958AB180638AB9F0
:100580008AB1806C8AB987B1836087B987B18C6082
:1005900087B92FEF81EE94E0215080409040E1F741
:1005A00000C0000081EA809380008AE0809381008F
:1005B00084B1866084B983EA8093B00082E080933E
:1005C000B100239A539A0E9432028FEF0C94AC022E
:1005D00090E0909389008093880090938B008093A3
:1005E0008A0008958093B3008093B40008953D9AE3
:1005F000459824982C982FEF80E792E02150804076
:100600009040E1F700C00000089545988FE19EE416
:100610000197F1F700C00000459A95E39A95F1F72C
:100620000000459889EB9BE01C9B05C090E080E0B2
:100630001C990BC00895019719F490E080E008958B
:1006400025E02A95F1F70000EFCF25E02A95F1F794
:1006500000000196883B2BE0920751F7EECF0E94F5
:100660000503009759F06AE370E00E947A03CB011A
:100670009B01225031092336310510F08FEF9FEF97
:1006800008950E942F0321E030E01816190624F087
:1006900090E080E030E020E0EFE3FCE93197F1F713
:1006A00000C00000232B11F48FEF9FEF08950E94EC
:1006B000BD020E9453000E94F7020E9494007894A9
:1006C0002FEF83ED90E3215080409040E1F700C090
:1006D000000088EC0E94AC020E94D60080910401C8
:1006E00090910501892B19F40E945501F5CF0E94C4
:1006F000E100F2CFAA1BBB1B51E107C0AA1FBB1F21
:10070000A617B70710F0A61BB70B881F991F5A959D
:10071000A9F780959095BC01CD010895F894FFCF7D
:02072000FF00D8
:00000001FF
